{
  "_format": "hh-sol-artifact-1",
  "contractName": "EnergyTransact",
  "sourceName": "contracts/EnergyTransact.sol",
  "abi": [
    {
      "inputs": [
        {
          "internalType": "uint256",
          "name": "_tokenAmmount",
          "type": "uint256"
        },
        {
          "internalType": "uint256",
          "name": "_tokenValue",
          "type": "uint256"
        }
      ],
      "stateMutability": "nonpayable",
      "type": "constructor"
    },
    {
      "inputs": [
        {
          "internalType": "address",
          "name": "spender",
          "type": "address"
        },
        {
          "internalType": "uint256",
          "name": "allowance",
          "type": "uint256"
        },
        {
          "internalType": "uint256",
          "name": "needed",
          "type": "uint256"
        }
      ],
      "name": "ERC20InsufficientAllowance",
      "type": "error"
    },
    {
      "inputs": [
        {
          "internalType": "address",
          "name": "sender",
          "type": "address"
        },
        {
          "internalType": "uint256",
          "name": "balance",
          "type": "uint256"
        },
        {
          "internalType": "uint256",
          "name": "needed",
          "type": "uint256"
        }
      ],
      "name": "ERC20InsufficientBalance",
      "type": "error"
    },
    {
      "inputs": [
        {
          "internalType": "address",
          "name": "approver",
          "type": "address"
        }
      ],
      "name": "ERC20InvalidApprover",
      "type": "error"
    },
    {
      "inputs": [
        {
          "internalType": "address",
          "name": "receiver",
          "type": "address"
        }
      ],
      "name": "ERC20InvalidReceiver",
      "type": "error"
    },
    {
      "inputs": [
        {
          "internalType": "address",
          "name": "sender",
          "type": "address"
        }
      ],
      "name": "ERC20InvalidSender",
      "type": "error"
    },
    {
      "inputs": [
        {
          "internalType": "address",
          "name": "spender",
          "type": "address"
        }
      ],
      "name": "ERC20InvalidSpender",
      "type": "error"
    },
    {
      "anonymous": false,
      "inputs": [
        {
          "indexed": true,
          "internalType": "address",
          "name": "owner",
          "type": "address"
        },
        {
          "indexed": true,
          "internalType": "address",
          "name": "spender",
          "type": "address"
        },
        {
          "indexed": false,
          "internalType": "uint256",
          "name": "value",
          "type": "uint256"
        }
      ],
      "name": "Approval",
      "type": "event"
    },
    {
      "anonymous": false,
      "inputs": [
        {
          "indexed": true,
          "internalType": "address",
          "name": "from",
          "type": "address"
        },
        {
          "indexed": true,
          "internalType": "address",
          "name": "to",
          "type": "address"
        },
        {
          "indexed": false,
          "internalType": "uint256",
          "name": "value",
          "type": "uint256"
        }
      ],
      "name": "Transfer",
      "type": "event"
    },
    {
      "inputs": [
        {
          "internalType": "address",
          "name": "owner",
          "type": "address"
        },
        {
          "internalType": "address",
          "name": "spender",
          "type": "address"
        }
      ],
      "name": "allowance",
      "outputs": [
        {
          "internalType": "uint256",
          "name": "",
          "type": "uint256"
        }
      ],
      "stateMutability": "view",
      "type": "function"
    },
    {
      "inputs": [
        {
          "internalType": "address",
          "name": "spender",
          "type": "address"
        },
        {
          "internalType": "uint256",
          "name": "value",
          "type": "uint256"
        }
      ],
      "name": "approve",
      "outputs": [
        {
          "internalType": "bool",
          "name": "",
          "type": "bool"
        }
      ],
      "stateMutability": "nonpayable",
      "type": "function"
    },
    {
      "inputs": [],
      "name": "balanceEthers",
      "outputs": [
        {
          "internalType": "uint256",
          "name": "",
          "type": "uint256"
        }
      ],
      "stateMutability": "view",
      "type": "function"
    },
    {
      "inputs": [
        {
          "internalType": "address",
          "name": "account",
          "type": "address"
        }
      ],
      "name": "balanceOf",
      "outputs": [
        {
          "internalType": "uint256",
          "name": "",
          "type": "uint256"
        }
      ],
      "stateMutability": "view",
      "type": "function"
    },
    {
      "inputs": [],
      "name": "balanceTokens",
      "outputs": [
        {
          "internalType": "uint256",
          "name": "",
          "type": "uint256"
        }
      ],
      "stateMutability": "view",
      "type": "function"
    },
    {
      "inputs": [
        {
          "internalType": "address",
          "name": "_meterAddress",
          "type": "address"
        },
        {
          "internalType": "uint256",
          "name": "_amount",
          "type": "uint256"
        }
      ],
      "name": "buyEnergy",
      "outputs": [],
      "stateMutability": "payable",
      "type": "function"
    },
    {
      "inputs": [
        {
          "internalType": "uint256",
          "name": "_numTokens",
          "type": "uint256"
        }
      ],
      "name": "buyTokens",
      "outputs": [],
      "stateMutability": "payable",
      "type": "function"
    },
    {
      "inputs": [],
      "name": "decimals",
      "outputs": [
        {
          "internalType": "uint8",
          "name": "",
          "type": "uint8"
        }
      ],
      "stateMutability": "view",
      "type": "function"
    },
    {
      "inputs": [],
      "name": "microgrid",
      "outputs": [
        {
          "internalType": "contract Microgrid",
          "name": "",
          "type": "address"
        }
      ],
      "stateMutability": "view",
      "type": "function"
    },
    {
      "inputs": [],
      "name": "name",
      "outputs": [
        {
          "internalType": "string",
          "name": "",
          "type": "string"
        }
      ],
      "stateMutability": "view",
      "type": "function"
    },
    {
      "inputs": [
        {
          "internalType": "address",
          "name": "",
          "type": "address"
        }
      ],
      "name": "prosumerTotalBuyed",
      "outputs": [
        {
          "internalType": "uint256",
          "name": "",
          "type": "uint256"
        }
      ],
      "stateMutability": "view",
      "type": "function"
    },
    {
      "inputs": [
        {
          "internalType": "uint256",
          "name": "_numTokens",
          "type": "uint256"
        }
      ],
      "name": "returnTokens",
      "outputs": [],
      "stateMutability": "payable",
      "type": "function"
    },
    {
      "inputs": [
        {
          "internalType": "uint256",
          "name": "_value",
          "type": "uint256"
        }
      ],
      "name": "setTokenValue",
      "outputs": [],
      "stateMutability": "nonpayable",
      "type": "function"
    },
    {
      "inputs": [],
      "name": "symbol",
      "outputs": [
        {
          "internalType": "string",
          "name": "",
          "type": "string"
        }
      ],
      "stateMutability": "view",
      "type": "function"
    },
    {
      "inputs": [],
      "name": "tokenValue",
      "outputs": [
        {
          "internalType": "uint256",
          "name": "",
          "type": "uint256"
        }
      ],
      "stateMutability": "view",
      "type": "function"
    },
    {
      "inputs": [],
      "name": "totalSupply",
      "outputs": [
        {
          "internalType": "uint256",
          "name": "",
          "type": "uint256"
        }
      ],
      "stateMutability": "view",
      "type": "function"
    },
    {
      "inputs": [
        {
          "internalType": "address",
          "name": "to",
          "type": "address"
        },
        {
          "internalType": "uint256",
          "name": "value",
          "type": "uint256"
        }
      ],
      "name": "transfer",
      "outputs": [
        {
          "internalType": "bool",
          "name": "",
          "type": "bool"
        }
      ],
      "stateMutability": "nonpayable",
      "type": "function"
    },
    {
      "inputs": [
        {
          "internalType": "address",
          "name": "from",
          "type": "address"
        },
        {
          "internalType": "address",
          "name": "to",
          "type": "address"
        },
        {
          "internalType": "uint256",
          "name": "value",
          "type": "uint256"
        }
      ],
      "name": "transferFrom",
      "outputs": [
        {
          "internalType": "bool",
          "name": "",
          "type": "bool"
        }
      ],
      "stateMutability": "nonpayable",
      "type": "function"
    }
  ],
  "bytecode": "0x60806040523480156200001157600080fd5b5060405162003deb38038062003deb833981810160405281019062000037919062000473565b6040518060400160405280600d81526020017f456e65726779204d61726b6574000000000000000000000000000000000000008152506040518060400160405280600381526020017f4e524700000000000000000000000000000000000000000000000000000000008152508160039081620000b491906200072a565b508060049081620000c691906200072a565b505050620000db30836200016860201b60201c565b604051620000e99062000425565b604051809103906000f08015801562000106573d6000803e3d6000fd5b50600660006101000a81548173ffffffffffffffffffffffffffffffffffffffff021916908373ffffffffffffffffffffffffffffffffffffffff16021790555064e8d4a51000816200015a919062000840565b600581905550505062000993565b600073ffffffffffffffffffffffffffffffffffffffff168273ffffffffffffffffffffffffffffffffffffffff1603620001dd5760006040517fec442f05000000000000000000000000000000000000000000000000000000008152600401620001d49190620008d0565b60405180910390fd5b620001f160008383620001f560201b60201c565b5050565b600073ffffffffffffffffffffffffffffffffffffffff168373ffffffffffffffffffffffffffffffffffffffff16036200024b5780600260008282546200023e9190620008ed565b9250508190555062000321565b60008060008573ffffffffffffffffffffffffffffffffffffffff1673ffffffffffffffffffffffffffffffffffffffff16815260200190815260200160002054905081811015620002da578381836040517fe450d38c000000000000000000000000000000000000000000000000000000008152600401620002d19392919062000939565b60405180910390fd5b8181036000808673ffffffffffffffffffffffffffffffffffffffff1673ffffffffffffffffffffffffffffffffffffffff16815260200190815260200160002081905550505b600073ffffffffffffffffffffffffffffffffffffffff168273ffffffffffffffffffffffffffffffffffffffff16036200036c5780600260008282540392505081905550620003b9565b806000808473ffffffffffffffffffffffffffffffffffffffff1673ffffffffffffffffffffffffffffffffffffffff168152602001908152602001600020600082825401925050819055505b8173ffffffffffffffffffffffffffffffffffffffff168373ffffffffffffffffffffffffffffffffffffffff167fddf252ad1be2c89b69c2b068fc378daa952ba7f163c4a11628f55a4df523b3ef8360405162000418919062000976565b60405180910390a3505050565b6118bb806200253083390190565b600080fd5b6000819050919050565b6200044d8162000438565b81146200045957600080fd5b50565b6000815190506200046d8162000442565b92915050565b600080604083850312156200048d576200048c62000433565b5b60006200049d858286016200045c565b9250506020620004b0858286016200045c565b9150509250929050565b600081519050919050565b7f4e487b7100000000000000000000000000000000000000000000000000000000600052604160045260246000fd5b7f4e487b7100000000000000000000000000000000000000000000000000000000600052602260045260246000fd5b600060028204905060018216806200053c57607f821691505b602082108103620005525762000551620004f4565b5b50919050565b60008190508160005260206000209050919050565b60006020601f8301049050919050565b600082821b905092915050565b600060088302620005bc7fffffffffffffffffffffffffffffffffffffffffffffffffffffffffffffffff826200057d565b620005c886836200057d565b95508019841693508086168417925050509392505050565b6000819050919050565b60006200060b62000605620005ff8462000438565b620005e0565b62000438565b9050919050565b6000819050919050565b6200062783620005ea565b6200063f620006368262000612565b8484546200058a565b825550505050565b600090565b6200065662000647565b620006638184846200061c565b505050565b5b818110156200068b576200067f6000826200064c565b60018101905062000669565b5050565b601f821115620006da57620006a48162000558565b620006af846200056d565b81016020851015620006bf578190505b620006d7620006ce856200056d565b83018262000668565b50505b505050565b600082821c905092915050565b6000620006ff60001984600802620006df565b1980831691505092915050565b60006200071a8383620006ec565b9150826002028217905092915050565b6200073582620004ba565b67ffffffffffffffff811115620007515762000750620004c5565b5b6200075d825462000523565b6200076a8282856200068f565b600060209050601f831160018114620007a257600084156200078d578287015190505b6200079985826200070c565b86555062000809565b601f198416620007b28662000558565b60005b82811015620007dc57848901518255600182019150602085019450602081019050620007b5565b86831015620007fc5784890151620007f8601f891682620006ec565b8355505b6001600288020188555050505b505050505050565b7f4e487b7100000000000000000000000000000000000000000000000000000000600052601160045260246000fd5b60006200084d8262000438565b91506200085a8362000438565b92508282026200086a8162000438565b9150828204841483151762000884576200088362000811565b5b5092915050565b600073ffffffffffffffffffffffffffffffffffffffff82169050919050565b6000620008b8826200088b565b9050919050565b620008ca81620008ab565b82525050565b6000602082019050620008e76000830184620008bf565b92915050565b6000620008fa8262000438565b9150620009078362000438565b925082820190508082111562000922576200092162000811565b5b92915050565b620009338162000438565b82525050565b6000606082019050620009506000830186620008bf565b6200095f602083018562000928565b6200096e604083018462000928565b949350505050565b60006020820190506200098d600083018462000928565b92915050565b611b8d80620009a36000396000f3fe6080604052600436106101095760003560e01c80633ae1786f1161009557806395d89b411161006457806395d89b4114610358578063a2bf693914610383578063a9059cbb146103ac578063dd62ed3e146103e9578063e4494a0f1461042657610109565b80633ae1786f1461029757806364a00b08146102b357806370a08231146102f057806381987b4a1461032d57610109565b80631ec7e345116100dc5780631ec7e345146101cc57806323b872dd146101f7578063313ce567146102345780633610724e1461025f57806336fd7e1b1461027b57610109565b806306fdde031461010e578063095ea7b31461013957806318160ddd146101765780631b052825146101a1575b600080fd5b34801561011a57600080fd5b50610123610451565b6040516101309190611343565b60405180910390f35b34801561014557600080fd5b50610160600480360381019061015b91906113fe565b6104e3565b60405161016d9190611459565b60405180910390f35b34801561018257600080fd5b5061018b610506565b6040516101989190611483565b60405180910390f35b3480156101ad57600080fd5b506101b6610510565b6040516101c391906114fd565b60405180910390f35b3480156101d857600080fd5b506101e1610536565b6040516101ee9190611483565b60405180910390f35b34801561020357600080fd5b5061021e60048036038101906102199190611518565b61053c565b60405161022b9190611459565b60405180910390f35b34801561024057600080fd5b5061024961056b565b6040516102569190611587565b60405180910390f35b610279600480360381019061027491906115a2565b610574565b005b610295600480360381019061029091906113fe565b61067b565b005b6102b160048036038101906102ac91906115a2565b610a47565b005b3480156102bf57600080fd5b506102da60048036038101906102d591906115cf565b610b30565b6040516102e79190611483565b60405180910390f35b3480156102fc57600080fd5b50610317600480360381019061031291906115cf565b610b48565b6040516103249190611483565b60405180910390f35b34801561033957600080fd5b50610342610b90565b60405161034f9190611483565b60405180910390f35b34801561036457600080fd5b5061036d610b98565b60405161037a9190611343565b60405180910390f35b34801561038f57600080fd5b506103aa60048036038101906103a591906115a2565b610c2a565b005b3480156103b857600080fd5b506103d360048036038101906103ce91906113fe565b610c44565b6040516103e09190611459565b60405180910390f35b3480156103f557600080fd5b50610410600480360381019061040b91906115fc565b610c67565b60405161041d9190611483565b60405180910390f35b34801561043257600080fd5b5061043b610cee565b6040516104489190611483565b60405180910390f35b6060600380546104609061166b565b80601f016020809104026020016040519081016040528092919081815260200182805461048c9061166b565b80156104d95780601f106104ae576101008083540402835291602001916104d9565b820191906000526020600020905b8154815290600101906020018083116104bc57829003601f168201915b5050505050905090565b6000806104ee610cfe565b90506104fb818585610d06565b600191505092915050565b6000600254905090565b600660009054906101000a900473ffffffffffffffffffffffffffffffffffffffff1681565b60055481565b600080610547610cfe565b9050610554858285610d18565b61055f858585610dac565b60019150509392505050565b60006012905090565b600061057f82610ea0565b9050803410156105c4576040517f08c379a00000000000000000000000000000000000000000000000000000000081526004016105bb906116e8565b60405180910390fd5b60006105ce610cee565b905080831115610613576040517f08c379a000000000000000000000000000000000000000000000000000000000815260040161060a90611754565b60405180910390fd5b6000823461062191906117a3565b90503373ffffffffffffffffffffffffffffffffffffffff166108fc829081150290604051600060405180830381858888f19350505050158015610669573d6000803e3d6000fd5b50610675303386610dac565b50505050565b6000811161068857600080fd5b600073ffffffffffffffffffffffffffffffffffffffff168273ffffffffffffffffffffffffffffffffffffffff16036106f7576040517f08c379a00000000000000000000000000000000000000000000000000000000081526004016106ee90611823565b60405180910390fd5b6000600660009054906101000a900473ffffffffffffffffffffffffffffffffffffffff1673ffffffffffffffffffffffffffffffffffffffff166365580ec084846040518363ffffffff1660e01b8152600401610756929190611852565b6020604051808303816000875af1158015610775573d6000803e3d6000fd5b505050506040513d601f19601f820116820180604052508101906107999190611890565b90506000600660009054906101000a900473ffffffffffffffffffffffffffffffffffffffff1673ffffffffffffffffffffffffffffffffffffffff16638482df6a856040518263ffffffff1660e01b81526004016107f891906118bd565b602060405180830381865afa158015610815573d6000803e3d6000fd5b505050506040513d601f19601f8201168201806040525081019061083991906118ed565b9050600073ffffffffffffffffffffffffffffffffffffffff168173ffffffffffffffffffffffffffffffffffffffff16036108aa576040517f08c379a00000000000000000000000000000000000000000000000000000000081526004016108a190611966565b60405180910390fd5b3373ffffffffffffffffffffffffffffffffffffffff168173ffffffffffffffffffffffffffffffffffffffff1603610918576040517f08c379a000000000000000000000000000000000000000000000000000000000815260040161090f906119f8565b60405180910390fd5b8161092233610b48565b1015610963576040517f08c379a000000000000000000000000000000000000000000000000000000000815260040161095a906116e8565b60405180910390fd5b61096e338284610dac565b600660009054906101000a900473ffffffffffffffffffffffffffffffffffffffff1673ffffffffffffffffffffffffffffffffffffffff16636caf9be285856040518363ffffffff1660e01b81526004016109cb929190611852565b600060405180830381600087803b1580156109e557600080fd5b505af11580156109f9573d6000803e3d6000fd5b5050505082600760003373ffffffffffffffffffffffffffffffffffffffff1673ffffffffffffffffffffffffffffffffffffffff1681526020019081526020016000208190555050505050565b60008111610a8a576040517f08c379a0000000000000000000000000000000000000000000000000000000008152600401610a8190611a8a565b60405180910390fd5b80471015610acd576040517f08c379a0000000000000000000000000000000000000000000000000000000008152600401610ac4906116e8565b60405180910390fd5b610ad8333083610dac565b6000610ae382610ea0565b90503373ffffffffffffffffffffffffffffffffffffffff166108fc829081150290604051600060405180830381858888f19350505050158015610b2b573d6000803e3d6000fd5b505050565b60076020528060005260406000206000915090505481565b60008060008373ffffffffffffffffffffffffffffffffffffffff1673ffffffffffffffffffffffffffffffffffffffff168152602001908152602001600020549050919050565b600047905090565b606060048054610ba79061166b565b80601f0160208091040260200160405190810160405280929190818152602001828054610bd39061166b565b8015610c205780601f10610bf557610100808354040283529160200191610c20565b820191906000526020600020905b815481529060010190602001808311610c0357829003601f168201915b5050505050905090565b64e8d4a5100081610c3b9190611aaa565b60058190555050565b600080610c4f610cfe565b9050610c5c818585610dac565b600191505092915050565b6000600160008473ffffffffffffffffffffffffffffffffffffffff1673ffffffffffffffffffffffffffffffffffffffff16815260200190815260200160002060008373ffffffffffffffffffffffffffffffffffffffff1673ffffffffffffffffffffffffffffffffffffffff16815260200190815260200160002054905092915050565b6000610cf930610b48565b905090565b600033905090565b610d138383836001610eb7565b505050565b6000610d248484610c67565b90507fffffffffffffffffffffffffffffffffffffffffffffffffffffffffffffffff8114610da65781811015610d96578281836040517ffb8f41b2000000000000000000000000000000000000000000000000000000008152600401610d8d93929190611aec565b60405180910390fd5b610da584848484036000610eb7565b5b50505050565b600073ffffffffffffffffffffffffffffffffffffffff168373ffffffffffffffffffffffffffffffffffffffff1603610e1e5760006040517f96c6fd1e000000000000000000000000000000000000000000000000000000008152600401610e1591906118bd565b60405180910390fd5b600073ffffffffffffffffffffffffffffffffffffffff168273ffffffffffffffffffffffffffffffffffffffff1603610e905760006040517fec442f05000000000000000000000000000000000000000000000000000000008152600401610e8791906118bd565b60405180910390fd5b610e9b83838361108e565b505050565b600060055482610eb09190611aaa565b9050919050565b600073ffffffffffffffffffffffffffffffffffffffff168473ffffffffffffffffffffffffffffffffffffffff1603610f295760006040517fe602df05000000000000000000000000000000000000000000000000000000008152600401610f2091906118bd565b60405180910390fd5b600073ffffffffffffffffffffffffffffffffffffffff168373ffffffffffffffffffffffffffffffffffffffff1603610f9b5760006040517f94280d62000000000000000000000000000000000000000000000000000000008152600401610f9291906118bd565b60405180910390fd5b81600160008673ffffffffffffffffffffffffffffffffffffffff1673ffffffffffffffffffffffffffffffffffffffff16815260200190815260200160002060008573ffffffffffffffffffffffffffffffffffffffff1673ffffffffffffffffffffffffffffffffffffffff168152602001908152602001600020819055508015611088578273ffffffffffffffffffffffffffffffffffffffff168473ffffffffffffffffffffffffffffffffffffffff167f8c5be1e5ebec7d5bd14f71427d1e84f3dd0314c0f7b2291e5b200ac8c7c3b9258460405161107f9190611483565b60405180910390a35b50505050565b600073ffffffffffffffffffffffffffffffffffffffff168373ffffffffffffffffffffffffffffffffffffffff16036110e05780600260008282546110d49190611b23565b925050819055506111b3565b60008060008573ffffffffffffffffffffffffffffffffffffffff1673ffffffffffffffffffffffffffffffffffffffff1681526020019081526020016000205490508181101561116c578381836040517fe450d38c00000000000000000000000000000000000000000000000000000000815260040161116393929190611aec565b60405180910390fd5b8181036000808673ffffffffffffffffffffffffffffffffffffffff1673ffffffffffffffffffffffffffffffffffffffff16815260200190815260200160002081905550505b600073ffffffffffffffffffffffffffffffffffffffff168273ffffffffffffffffffffffffffffffffffffffff16036111fc5780600260008282540392505081905550611249565b806000808473ffffffffffffffffffffffffffffffffffffffff1673ffffffffffffffffffffffffffffffffffffffff168152602001908152602001600020600082825401925050819055505b8173ffffffffffffffffffffffffffffffffffffffff168373ffffffffffffffffffffffffffffffffffffffff167fddf252ad1be2c89b69c2b068fc378daa952ba7f163c4a11628f55a4df523b3ef836040516112a69190611483565b60405180910390a3505050565b600081519050919050565b600082825260208201905092915050565b60005b838110156112ed5780820151818401526020810190506112d2565b60008484015250505050565b6000601f19601f8301169050919050565b6000611315826112b3565b61131f81856112be565b935061132f8185602086016112cf565b611338816112f9565b840191505092915050565b6000602082019050818103600083015261135d818461130a565b905092915050565b600080fd5b600073ffffffffffffffffffffffffffffffffffffffff82169050919050565b60006113958261136a565b9050919050565b6113a58161138a565b81146113b057600080fd5b50565b6000813590506113c28161139c565b92915050565b6000819050919050565b6113db816113c8565b81146113e657600080fd5b50565b6000813590506113f8816113d2565b92915050565b6000806040838503121561141557611414611365565b5b6000611423858286016113b3565b9250506020611434858286016113e9565b9150509250929050565b60008115159050919050565b6114538161143e565b82525050565b600060208201905061146e600083018461144a565b92915050565b61147d816113c8565b82525050565b60006020820190506114986000830184611474565b92915050565b6000819050919050565b60006114c36114be6114b98461136a565b61149e565b61136a565b9050919050565b60006114d5826114a8565b9050919050565b60006114e7826114ca565b9050919050565b6114f7816114dc565b82525050565b600060208201905061151260008301846114ee565b92915050565b60008060006060848603121561153157611530611365565b5b600061153f868287016113b3565b9350506020611550868287016113b3565b9250506040611561868287016113e9565b9150509250925092565b600060ff82169050919050565b6115818161156b565b82525050565b600060208201905061159c6000830184611578565b92915050565b6000602082840312156115b8576115b7611365565b5b60006115c6848285016113e9565b91505092915050565b6000602082840312156115e5576115e4611365565b5b60006115f3848285016113b3565b91505092915050565b6000806040838503121561161357611612611365565b5b6000611621858286016113b3565b9250506020611632858286016113b3565b9150509250929050565b7f4e487b7100000000000000000000000000000000000000000000000000000000600052602260045260246000fd5b6000600282049050600182168061168357607f821691505b6020821081036116965761169561163c565b5b50919050565b7f4e6f206861792064696e65726f20737566696369656e74650000000000000000600082015250565b60006116d26018836112be565b91506116dd8261169c565b602082019050919050565b60006020820190508181036000830152611701816116c5565b9050919050565b7f4e6f2068617920746f6b656e7320737566696369656e74657300000000000000600082015250565b600061173e6019836112be565b915061174982611708565b602082019050919050565b6000602082019050818103600083015261176d81611731565b9050919050565b7f4e487b7100000000000000000000000000000000000000000000000000000000600052601160045260246000fd5b60006117ae826113c8565b91506117b9836113c8565b92508282039050818111156117d1576117d0611774565b5b92915050565b7f4e6f2065786973746520656c206d656469646f72000000000000000000000000600082015250565b600061180d6014836112be565b9150611818826117d7565b602082019050919050565b6000602082019050818103600083015261183c81611800565b9050919050565b61184c8161138a565b82525050565b60006040820190506118676000830185611843565b6118746020830184611474565b9392505050565b60008151905061188a816113d2565b92915050565b6000602082840312156118a6576118a5611365565b5b60006118b48482850161187b565b91505092915050565b60006020820190506118d26000830184611843565b92915050565b6000815190506118e78161139c565b92915050565b60006020828403121561190357611902611365565b5b6000611911848285016118d8565b91505092915050565b7f4e6f2065786973746520656c2070726f73756d69646f72000000000000000000600082015250565b60006119506017836112be565b915061195b8261191a565b602082019050919050565b6000602082019050818103600083015261197f81611943565b9050919050565b7f496e74656e746120636f6d7072617220616c206d69736d6f2070726f73756d6960008201527f646f720000000000000000000000000000000000000000000000000000000000602082015250565b60006119e26023836112be565b91506119ed82611986565b604082019050919050565b60006020820190508181036000830152611a11816119d5565b9050919050565b7f456c2076616c6f72206465206c61206465766f6c7563696f6e206e6f2065732060008201527f76616c69646f0000000000000000000000000000000000000000000000000000602082015250565b6000611a746026836112be565b9150611a7f82611a18565b604082019050919050565b60006020820190508181036000830152611aa381611a67565b9050919050565b6000611ab5826113c8565b9150611ac0836113c8565b9250828202611ace816113c8565b91508282048414831517611ae557611ae4611774565b5b5092915050565b6000606082019050611b016000830186611843565b611b0e6020830185611474565b611b1b6040830184611474565b949350505050565b6000611b2e826113c8565b9150611b39836113c8565b9250828201905080821115611b5157611b50611774565b5b9291505056fea2646970667358221220aa3ceaf22a618c777932b49611d087937e5c5150a8437a2445f674c0d0e01bb764736f6c63430008140033608060405234801561001057600080fd5b5061189b806100206000396000f3fe608060405234801561001057600080fd5b50600436106100f55760003560e01c80637cc9dbc011610097578063a81993c911610066578063a81993c91461029e578063a851d379146102ba578063d4d9dfc9146102d6578063de348951146102f2576100f5565b80637cc9dbc0146102025780638482df6a14610220578063931c93e914610250578063a76aab681461026e576100f5565b806350fa74cc116100d357806350fa74cc1461016457806365580ec0146101805780636caf9be2146101b057806372abdd3b146101cc576100f5565b80630b929a2d146100fa5780632bdb70971461012a578063374cd5ae14610146575b600080fd5b610114600480360381019061010f9190611308565b61030e565b6040516101219190611376565b60405180910390f35b610144600480360381019061013f91906113bd565b61034d565b005b61014e610406565b60405161015b919061140c565b60405180910390f35b61017e600480360381019061017991906113bd565b61040c565b005b61019a600480360381019061019591906113bd565b610794565b6040516101a7919061140c565b60405180910390f35b6101ca60048036038101906101c591906113bd565b61099a565b005b6101e660048036038101906101e19190611427565b610b4e565b6040516101f9979695949392919061146f565b60405180910390f35b61020a610b9d565b604051610217919061159c565b60405180910390f35b61023a60048036038101906102359190611427565b610c2b565b6040516102479190611376565b60405180910390f35b610258610c5e565b604051610265919061159c565b60405180910390f35b610288600480360381019061028391906113bd565b610d29565b6040516102959190611376565b60405180910390f35b6102b860048036038101906102b391906113bd565b610d77565b005b6102d460048036038101906102cf9190611427565b610e9c565b005b6102f060048036038101906102eb9190611427565b610f68565b005b61030c600480360381019061030791906115be565b611034565b005b6003818154811061031e57600080fd5b906000526020600020016000915054906101000a900473ffffffffffffffffffffffffffffffffffffffff1681565b600073ffffffffffffffffffffffffffffffffffffffff168273ffffffffffffffffffffffffffffffffffffffff16036103bc576040517f08c379a00000000000000000000000000000000000000000000000000000000081526004016103b39061166e565b60405180910390fd5b806000808473ffffffffffffffffffffffffffffffffffffffff1673ffffffffffffffffffffffffffffffffffffffff168152602001908152602001600020600101819055505050565b60045481565b6000811161041957600080fd5b600073ffffffffffffffffffffffffffffffffffffffff168273ffffffffffffffffffffffffffffffffffffffff1603610488576040517f08c379a000000000000000000000000000000000000000000000000000000000815260040161047f9061166e565b60405180910390fd5b600015156000808473ffffffffffffffffffffffffffffffffffffffff1673ffffffffffffffffffffffffffffffffffffffff16815260200190815260200160002060000160009054906101000a900460ff1615151461051d576040517f08c379a0000000000000000000000000000000000000000000000000000000008152600401610514906116da565b60405180910390fd5b33600160008473ffffffffffffffffffffffffffffffffffffffff1673ffffffffffffffffffffffffffffffffffffffff16815260200190815260200160002060006101000a81548173ffffffffffffffffffffffffffffffffffffffff021916908373ffffffffffffffffffffffffffffffffffffffff1602179055506040518060e001604052806001151581526020018281526020016000815260200160008152602001600081526020016000815260200160008152506000808473ffffffffffffffffffffffffffffffffffffffff1673ffffffffffffffffffffffffffffffffffffffff16815260200190815260200160002060008201518160000160006101000a81548160ff0219169083151502179055506020820151816001015560408201518160020155606082015181600301556080820151816004015560a0820151816005015560c082015181600601559050506003829080600181540180825580915050600190039060005260206000200160009091909190916101000a81548173ffffffffffffffffffffffffffffffffffffffff021916908373ffffffffffffffffffffffffffffffffffffffff160217905550600260003373ffffffffffffffffffffffffffffffffffffffff1673ffffffffffffffffffffffffffffffffffffffff168152602001908152602001600020829080600181540180825580915050600190039060005260206000200160009091909190916101000a81548173ffffffffffffffffffffffffffffffffffffffff021916908373ffffffffffffffffffffffffffffffffffffffff1602179055506001600460008282546107899190611729565b925050819055505050565b60008082116107a257600080fd5b600073ffffffffffffffffffffffffffffffffffffffff168373ffffffffffffffffffffffffffffffffffffffff1603610811576040517f08c379a00000000000000000000000000000000000000000000000000000000081526004016108089061166e565b60405180910390fd5b816000808573ffffffffffffffffffffffffffffffffffffffff1673ffffffffffffffffffffffffffffffffffffffff168152602001908152602001600020600401541015610895576040517f08c379a000000000000000000000000000000000000000000000000000000000815260040161088c906117cf565b60405180910390fd5b816000808573ffffffffffffffffffffffffffffffffffffffff1673ffffffffffffffffffffffffffffffffffffffff16815260200190815260200160002060060160008282546108e69190611729565b92505081905550816000808573ffffffffffffffffffffffffffffffffffffffff1673ffffffffffffffffffffffffffffffffffffffff168152602001908152602001600020600401600082825461093e91906117ef565b925050819055506000808473ffffffffffffffffffffffffffffffffffffffff1673ffffffffffffffffffffffffffffffffffffffff16815260200190815260200160002060010154826109929190611823565b905092915050565b600081116109a757600080fd5b600073ffffffffffffffffffffffffffffffffffffffff168273ffffffffffffffffffffffffffffffffffffffff1603610a16576040517f08c379a0000000000000000000000000000000000000000000000000000000008152600401610a0d9061166e565b60405180910390fd5b806000808473ffffffffffffffffffffffffffffffffffffffff1673ffffffffffffffffffffffffffffffffffffffff168152602001908152602001600020600401541015610a9a576040517f08c379a0000000000000000000000000000000000000000000000000000000008152600401610a91906117cf565b60405180910390fd5b806000808473ffffffffffffffffffffffffffffffffffffffff1673ffffffffffffffffffffffffffffffffffffffff1681526020019081526020016000206005016000828254610aeb9190611729565b92505081905550806000808473ffffffffffffffffffffffffffffffffffffffff1673ffffffffffffffffffffffffffffffffffffffff1681526020019081526020016000206006016000828254610b4391906117ef565b925050819055505050565b60006020528060005260406000206000915090508060000160009054906101000a900460ff16908060010154908060020154908060030154908060040154908060050154908060060154905087565b60606003805480602002602001604051908101604052809291908181526020018280548015610c2157602002820191906000526020600020905b8160009054906101000a900473ffffffffffffffffffffffffffffffffffffffff1673ffffffffffffffffffffffffffffffffffffffff1681526020019060010190808311610bd7575b5050505050905090565b60016020528060005260406000206000915054906101000a900473ffffffffffffffffffffffffffffffffffffffff1681565b6060600260003373ffffffffffffffffffffffffffffffffffffffff1673ffffffffffffffffffffffffffffffffffffffff168152602001908152602001600020805480602002602001604051908101604052809291908181526020018280548015610d1f57602002820191906000526020600020905b8160009054906101000a900473ffffffffffffffffffffffffffffffffffffffff1673ffffffffffffffffffffffffffffffffffffffff1681526020019060010190808311610cd5575b5050505050905090565b60026020528160005260406000208181548110610d4557600080fd5b906000526020600020016000915091509054906101000a900473ffffffffffffffffffffffffffffffffffffffff1681565b60008111610d8457600080fd5b600073ffffffffffffffffffffffffffffffffffffffff168273ffffffffffffffffffffffffffffffffffffffff1603610dbd57600080fd5b806000808473ffffffffffffffffffffffffffffffffffffffff1673ffffffffffffffffffffffffffffffffffffffff1681526020019081526020016000206004015410610e40576040517f08c379a0000000000000000000000000000000000000000000000000000000008152600401610e37906117cf565b60405180910390fd5b806000808473ffffffffffffffffffffffffffffffffffffffff1673ffffffffffffffffffffffffffffffffffffffff1681526020019081526020016000206006016000828254610e9191906117ef565b925050819055505050565b600073ffffffffffffffffffffffffffffffffffffffff168173ffffffffffffffffffffffffffffffffffffffff1603610f0b576040517f08c379a0000000000000000000000000000000000000000000000000000000008152600401610f029061166e565b60405180910390fd5b60008060008373ffffffffffffffffffffffffffffffffffffffff1673ffffffffffffffffffffffffffffffffffffffff16815260200190815260200160002060000160006101000a81548160ff02191690831515021790555050565b600073ffffffffffffffffffffffffffffffffffffffff168173ffffffffffffffffffffffffffffffffffffffff1603610fd7576040517f08c379a0000000000000000000000000000000000000000000000000000000008152600401610fce9061166e565b60405180910390fd5b60016000808373ffffffffffffffffffffffffffffffffffffffff1673ffffffffffffffffffffffffffffffffffffffff16815260200190815260200160002060000160006101000a81548160ff02191690831515021790555050565b60008210158015611046575060008110155b61104f57600080fd5b600073ffffffffffffffffffffffffffffffffffffffff168373ffffffffffffffffffffffffffffffffffffffff16036110be576040517f08c379a00000000000000000000000000000000000000000000000000000000081526004016110b59061166e565b60405180910390fd5b6000808473ffffffffffffffffffffffffffffffffffffffff1673ffffffffffffffffffffffffffffffffffffffff16815260200190815260200160002060020154821461114d57816000808573ffffffffffffffffffffffffffffffffffffffff1673ffffffffffffffffffffffffffffffffffffffff168152602001908152602001600020600201819055505b6000808473ffffffffffffffffffffffffffffffffffffffff1673ffffffffffffffffffffffffffffffffffffffff1681526020019081526020016000206003015481146111dc57806000808573ffffffffffffffffffffffffffffffffffffffff1673ffffffffffffffffffffffffffffffffffffffff168152602001908152602001600020600301819055505b60008060008573ffffffffffffffffffffffffffffffffffffffff1673ffffffffffffffffffffffffffffffffffffffff16815260200190815260200160002060050154838361122c91906117ef565b61123691906117ef565b90506000808573ffffffffffffffffffffffffffffffffffffffff1673ffffffffffffffffffffffffffffffffffffffff1681526020019081526020016000206004015481146112c757806000808673ffffffffffffffffffffffffffffffffffffffff1673ffffffffffffffffffffffffffffffffffffffff168152602001908152602001600020600401819055505b50505050565b600080fd5b6000819050919050565b6112e5816112d2565b81146112f057600080fd5b50565b600081359050611302816112dc565b92915050565b60006020828403121561131e5761131d6112cd565b5b600061132c848285016112f3565b91505092915050565b600073ffffffffffffffffffffffffffffffffffffffff82169050919050565b600061136082611335565b9050919050565b61137081611355565b82525050565b600060208201905061138b6000830184611367565b92915050565b61139a81611355565b81146113a557600080fd5b50565b6000813590506113b781611391565b92915050565b600080604083850312156113d4576113d36112cd565b5b60006113e2858286016113a8565b92505060206113f3858286016112f3565b9150509250929050565b611406816112d2565b82525050565b600060208201905061142160008301846113fd565b92915050565b60006020828403121561143d5761143c6112cd565b5b600061144b848285016113a8565b91505092915050565b60008115159050919050565b61146981611454565b82525050565b600060e082019050611484600083018a611460565b61149160208301896113fd565b61149e60408301886113fd565b6114ab60608301876113fd565b6114b860808301866113fd565b6114c560a08301856113fd565b6114d260c08301846113fd565b98975050505050505050565b600081519050919050565b600082825260208201905092915050565b6000819050602082019050919050565b61151381611355565b82525050565b6000611525838361150a565b60208301905092915050565b6000602082019050919050565b6000611549826114de565b61155381856114e9565b935061155e836114fa565b8060005b8381101561158f5781516115768882611519565b975061158183611531565b925050600181019050611562565b5085935050505092915050565b600060208201905081810360008301526115b6818461153e565b905092915050565b6000806000606084860312156115d7576115d66112cd565b5b60006115e5868287016113a8565b93505060206115f6868287016112f3565b9250506040611607868287016112f3565b9150509250925092565b600082825260208201905092915050565b7f56657269666963617220646972656363696f6e00000000000000000000000000600082015250565b6000611658601383611611565b915061166382611622565b602082019050919050565b600060208201905081810360008301526116878161164b565b9050919050565b7f4d656469646f72206578697374656e7465000000000000000000000000000000600082015250565b60006116c4601183611611565b91506116cf8261168e565b602082019050919050565b600060208201905081810360008301526116f3816116b7565b9050919050565b7f4e487b7100000000000000000000000000000000000000000000000000000000600052601160045260246000fd5b6000611734826112d2565b915061173f836112d2565b9250828201905080821115611757576117566116fa565b5b92915050565b7f4e6f2068617920737566696369656e746520656e657267696120646973706f6e60008201527f69626c6500000000000000000000000000000000000000000000000000000000602082015250565b60006117b9602483611611565b91506117c48261175d565b604082019050919050565b600060208201905081810360008301526117e8816117ac565b9050919050565b60006117fa826112d2565b9150611805836112d2565b925082820390508181111561181d5761181c6116fa565b5b92915050565b600061182e826112d2565b9150611839836112d2565b9250828202611847816112d2565b9150828204841483151761185e5761185d6116fa565b5b509291505056fea2646970667358221220172c37444e1ccac45e601e9b53a3d1365b9c96e46f14f60909f2106998d6cf1164736f6c63430008140033",
  "linkReferences": {},
  "deployedLinkReferences": {}
}